S01100004249444F4C5F3332382E73726563AD
S11300000C9434000C9449000C9449000C9449005D
S11300100C9449000C9449000C9449000C94490038
S11300200C9449000C9449000C9449000C94490028
S11300300C9449000C9449000C9449000C94490018
S11300400C9449000C9449000C9449000C94490008
S11300500C9449000C9449000C9449000C944900F8
S11300600C9449000C94490011241FBECFEFD8E032
S1130070DEBFCDBF11E0A0E0B1E0EEE1F1E002C0EF
S113008005900D92AA30B107D9F70E947D000C9417
S11300908D000C940000E0ECF0E0808182608083AD
S11300A01092C5008FEC8093C400E2ECF0E08081F4
S11300B086608083E1ECF0E080818860808308952D
S11300C09091C00095FFFCCF8093C60008950F93D4
S11300D01F93CF93DF938C01C0E0D0E003C00E9454
S11300E060002196F801EC0FFD1F80818111F7CF8C
S11300F0DF91CF911F910F9108950E944B0080E0F2
S113010091E00E9467002FEF83ED90E3215080403F
S11101109040E1F700C00000F2CFF894FFCF5A
S10D011E3132333132333132330011
S9030000FC
